:100000008A11F22F8A11762C8A117B2C8A11812C6D
:100010008A11852C8A118A2C8A11922C8A11942C8F
:0C0020008A119B2C8A11A12C8A11A42C9F
:100452007E088A007F08820029228A118000840A8D
:1004620004087D0603190034FF0A0319FE0A2D2A27
:1004720001340034023400340434003408340034CB
:100482001034003420340034403400340234003458
:10049200FD01F91F532AF809F909F80A0319F90AA3
:1004A200FD01FD0A7808F0007908F100F2018E30B2
:1004B200FB007B08F3007D08FC007C08F4008A1135
:1004C20000247008F8007108F9007208FA000800A8
:1004D2007C2A8312031386140611861108008312E4
:1004E2000313861006158611080083120313861063
:1004F2000611861508007108003A0319812A8C2A10
:100502007008013A03196A2A033A0319702A013A58
:100512000319762A8C2A080083120313A001A10171
:10052200791C9B2A7B0883120313A0070318A10AD4
:100532007C08A10701300310FB0DFC0DFF3E031DDB
:100542009C2A01300310FA0CF90CFF3E031DA32A6A
:1005520079087A04031D912A831203132108FA00F1
:100562002008F90008008316031385014030860035
:100572006C308F0020309B0081138312031386019D
:1005820085010530F0000030F1008A11F9228A114C
:10059200710883120313D7007008D6002830A00018
:1005A200A030A1003B30A2005708F9005608F8001D
:1005B2008A1149228A11780883120313A300790849
:1005C200A4007A08A5008A117A258A1183120313DE
:1005D2002008D3002108D4002208D5005308C60001
:1005E2005408C7005508C8008A114C268A11C22A2D
:1005F200203084005830F2000408F3000E30F4007A
:100602007208840083130008F500F20A730884005C
:1006120075088000F30AF40B012B831603139B0168
:10062200831203139F017008F2007207203E8400B8
:100632000008831603139B007108F3007008F20090
:100642000310F20DF30D0310F20DF30D0310F20D72
:10065200F30D720883120313AE007308AF002E0865
:10066200C1389F008030831603139F00C730F20009
:100672003A2BF20B392B3D2B3E2B831203131F1502
:100682001F19412B1E08F100831603131E08F000E8
:100692000800F601F11F542BF009F109F00A0319C1
:1006A200F10AF601F60AF31F5F2BF209F309F20AC7
:1006B2000319F30A0130F4007408F606F701F80191
:1006C200700871040319962BF501F50AF11B752BBD
:1006D20001300310F00DF10DFF3E031D6A2B0130B6
:1006E200F4007408F507672B01300310F70DF80DBD
:1006F200FF3E031D762B71087302031D822B7008C7
:100702007202031C8B2B7008F2027108031CF303A4
:10071200F302771401300310F10CF00CFF3E031DBD
:100722008C2B0130F502031D752B760803199E2BC5
:10073200F709F809F70A0319F80A7808F1007708A7
:10074200F0000800F21FCA2B0030F6000030F7005C
:100752008030F8007009F9007109FA007209FB0093
:10076200F90A0319FA0A0319FB0A7908F6077A0843
:1007720003187A0FBD2BBE2BF7077B0803187B0FDC
:10078200C32BC42BF8077608F0007708F10078082D
:10079200F200F51FF12B0030F6000030F700803038
:1007A200F8007309F9007409FA007509FB00F90AE7
:1007B2000319FA0A0319FB0A7908F6077A080318DB
:1007C2007A0FE42BE52BF7077B0803187B0FEA2B44
:1007D200EB2BF8077608F3007708F4007808F500A9
:1007E2008030F2068030F50675087202031D08009B
:1007F20074087102031D0800730870020800730870
:100802000319082C720871047004031D1B2C00309C
:10081200F0000030F1000030F20008000130F50075
:100822007508F30701300310F20CF10CF00CFF3ED7
:10083200031D142CFE3072050319362C0F2C0130C7
:10084200F5007508F3070130F00700300318013096
:10085200F107003003180130F20701300310F20CE7
:10086200F10CF00CFF3E031D2F2CFF307205031913
:10087200452C202C0130F30201300310F00DF10D54
:10088200F20DFF3E031D3E2CF11B4B2C0230730276
:1008920003183B2C7318532CFF30F0057F30F10501
:1008A200FF30F2050310F30C7308F500F601F701AF
:1008B20010300310F50DF60DF70DFF3E031D5A2CF7
:1008C2007508F0047608F1047708F2047408031935
:1008D2000800F2170800831203134108F1004008D0
:1008E200F0008A1169228A11AC2C051085100511BD
:1008F2008515A82C051485140511851505168F2C50
:10090200051085100515882C051485100511851113
:100912009F2C0514851405118511051286120614E3
:10092200BF2C0514952C0510851005118511051293
:100932008616AA2C05148514051185150516A92CF1
:1009420005108510A62C05148514051185110512B4
:1009520086120610BF2C831203133F08003A0319B4
:10096200B32CBF2C3E0884000A3004020318BF2CAB
:1009720000308A000310040D023E82006708F9006D
:100982006608F8008A1149228A1178088312031333
:10099200A3007908A4007A08A5000030A0007A30EC
:1009A200A1004430A2008A117A258A11831203130E
:1009B2002008B0002108B1002208B2008A11EC24FC
:1009C200831203133008C2003108C3003208C40086
:1009D2003308C5000800831203133008B40031083D
:1009E200B5003208B6000310350D360DB7003708D2
:1009F200BD003D08031D062D0030B3000030B200DB
:100A02000030B1000030B00008003008B4003108F6
:100A1200B5003208B60017300310B60CB50CB40C92
:100A2200FF3E031D0D2D3408B7003708B800B1177B
:100A3200FF30B005FF30B1050030B2053008B90013
:100A42003108BA003208BB00BC018E30BD02BD1FA6
:100A5200482D3D08803A8F3E0318382D0030B300F0
:100A62000030B2000030B1000030B00008000130A8
:100A72000310BC0CBB0CBA0CB90CFF3E031D392D84
:100A82000130B4003408BD070319632D382D183026
:100A92003D02031C602D0030B3000030B200003074
:100AA200B1000030B00008000130B4000310B90DED
:100AB200BA0DBB0DBC0DB40B572D0130BD023D0864
:100AC200031D552D38080319712DB909BA09BB093F
:100AD200BC09B90A0319BA0A0319BB0A0319BC0AE9
:100AE2003C08B3003B08B2003A08B1003908B00034
:100AF2000800831203132008A6002108A700220879
:100B0200A8000310270D280DA9002908AA002A0809
:100B1200031D922D0030A0000030A1000030A20081
:100B220008002308A6002408A7002508A80003102F
:100B3200270D280DA9002908AF002F08031DA82D95
:100B42000030A0000030A1000030A20008002F08F1
:100B52007B3EA6002608AA072008A6002108A700B7
:100B62002208A80010300310A80CA70CA60CFF3E08
:100B7200031DB42D2608A9002908AF002308A600EA
:100B82002408A7002508A80010300310A80CA70C01
:100B9200A60CFF3E031DC62D2608A9002908AF0694
:100BA2008030A6002608AF05A117A417FF30A305C1
:100BB200FF30A4050030A5050030AB000030AC00CA
:100BC2000030AD000730A6002608AE00201CF72D2D
:100BD2002308AB07240803110318240A031DAC07DA
:100BE200250803110318250A031DAD070130031060
:100BF200A20CA10CA00CFF3E031DF82D0130031026
:100C0200A30DA40DA50DFF3E031D002E0130AE0263
:100C1200031DE72D0930A6002608AE00201C1F2E5A
:100C22002308AB07240803110318240A031DAC0789
:100C3200250803110318250A031DAD07013003100F
:100C4200A20CA10CA00CFF3E031D202E01300310AC
:100C5200AD0CAC0CAB0CFF3E031D282E0130AE02D6
:100C6200031D0F2E2B08F0002C08F1002D08F200B6
:100C72002A08A6002608F3002F08A7002708F40078
:100C82008A110024700883120313A0007108A100C6
:100C92007208A20008008312031306160130CD0069
:100CA2000030CE00D101D2014608F0004708F10021
:100CB2004808F2000030F3008030F4003F30F500C5
:100CC2008A11A3238A1103186C2EE83083120313AE
:100CD200CD000330CE00831203134608F00047080C
:100CE200F1004808F2000030F3008030F4003F3099
:100CF200F5008A11A3238A11031C982E8312031371
:100D02004608F0004708F1004808F2000030F300FE
:100D12002030F4004130F5008A11A3238A11031810
:100D2200982E643083120313CD000030CE0083125C
:100D320003134608F0004708F1004808F2000030AB
:100D4200F3002030F4004130F5008A11A3238A1108
:100D5200031CB12E0A3083120313CD000030CE00E3
:100D6200831203134E08F9004D08F8008A11492234
:100D72008A11780883120313A3007908A4007A0861
:100D8200A5004608A0004708A1004808A2008A1151
:100D92007A258A11831203132008B0002108B100BA
:100DA2002208B2008A11EC248A118312031331083B
:100DB200D2003008D1004608F0004708F100480888
:100DC200F2000030F3008030F4003F30F5008A1169
:100DD200A3238A11031C042F831203134608F00075
:100DE2004708F1004808F2000030F3002030F40018
:100DF2004130F5008A11A3238A110318042F8312AC
:100E020003130612072F8312031306166430F00031
:100E12000030F1005208F3005108F2008A114A230F
:100E22008A11710883120313BF007008BE000130DB
:100E3200C0000030C1008A116C248A11831203138E
:100E42004608F0004708F1004808F2000030F300BD
:100E52002030F4004130F5008A11A3238A11031CCB
:100E6200362F831203130612392F83120313061629
:100E72006430F0000030F1005208F3005108F20033
:100E82008A114A238A117108FA007008F900643045
:100E9200FB000030FC008A118D228A11790983122D
:100EA2000313C9007A09CA00C90A0319CA0A5108F8
:100EB2004907CF0052080318520A4A07D0000A30E5
:100EC200F0000030F1005008F3004F08F2008A11E0
:100ED2004A238A11710883120313BF007008BE00EF
:100EE2000230C0000030C1008A116C248A118312C2
:100EF200031306166430F0000030F1005208F300CC
:100F02005108F2008A114A238A117108FA00700806
:100F1200F9006430FB000030FC008A118D228A1136
:100F2200790983120313C9007A09CA00C90A03198D
:100F3200CA0A51084907CF0052080318520A4A0741
:100F4200D0006430F0000030F1005208F300510884
:100F5200F2008A114A238A117108FA007008F90016
:100F62006430FB000030FC008A118D228A1179085E
:100F720083120313C9007A08CA000A30F000003055
:100F8200F1005008F3004F08F2008A114A238A1137
:100F92007108FA007008F9000A30FB000030FC000A
:100FA2008A118D228A117908831203134907CB0013
:100FB2007A0803187A0A4A07CC00CB09CC09CB0A73
:100FC2000319CC0A51084B07BE0052080318520AF3
:100FD2004C07BF000330C0000030C1008A116C24EE
:100FE200080083136830FD000230FE003930FF0034
:0E0FF200583084008A112D2283018A11B42AFE
:04400E0018FFFCFF9C
:00000001FF
